:100000000C94C6020C9419030C9419030C94190354
:100010000C9419030C9419030C9419030C941903F0
:100020000C9419030C9419030C946E200C9419036E
:100030000C94BE2E0C9419030C9419030C94190300
:100040000C9419030C9419030C9419030C941903C0
:100050000C9419030C94CA0A0C9419030C941903F8
:100060000C9419030C9419030C9419030C941903A0
:100070000C9419030C9419030C9419030C94190390
:100080000C9419030C9419030C9419030C94190380
:100090000C9419030C9419030C9419030C94190370
:1000A0000C9419030C9419030C9419037500010B9B
:1000B000020B01080208010F020F010F020F74FF6B
:1000C00001120212002C3100F8018E000000000421
:1000D00005060708090A0B0C0D0E0F101112131458
:1000E00015161718191A1B1C1D1E1F202122232448
:1000F00025262728292A2BC02D2E2F3031003334D6
:1001000035363738393A3B3C3D3E3F404142434427
:1001100045464748494A4B4C4D4E4F50515200546A
:100120005556575800000000000000000000000075
:1001300000000000000000000000000000000000BF
:1001400000000000000000000000000000000000AF
:10015000000000000000000000000000000000009F
:10016000000000000000000000000000000000008F
:10017000000000000000000000000000000000007F
:10018000000000000000000000000000000000006F
:10019000000000000000000000000000000000005F
:1001A0000000000000000000000000E0E1E2E300C9
:1001B000E5E6C100000000000000000000000000B3
:1001C000000000000000000000000000000000002F
:1001D000000051524F00504B51524F4E4A4D004A71
:1001E0004B504D4E004E004A003A3B3C3D3E3F4096
:1001F00041424328C22A2B2C4445000049000000FC
:100200004C4B4D00010101010101010101010101FE
:1002100001010101010101010101010101010001CF
:1002200001010101000000000000000000000000CA
:1002300000000000000000000000000000000000BE
:1002400000000000000000000000000000000000AE
:10025000000000000000000000000000000000009E
:10026000000000000000000000000000000000008E
:10027000000000000000000000000000000000007E
:10028000000000000000000000000000000000006E
:10029000000000000000000000000000000000005E
:1002A0000000000000000000000000E0E1E2E300C8
:1002B000E5E6010000000000000000000000000072
:1002C000000000000000000000000000000000002E
:1002D000F600FE00FF00F2F9F1F0F3F4F5FC000087
:1002E00000FD00FA000000FB003A3B3C3D3E3F4071
:1002F00041424328C22A2BF4444500004900000033
:100300004CF7F800010101010101010101010101A6
:1003100001010101010101010101010101010001CE
:1003200001010101000000000000000000000000C9
:1003300000000000000000000000000000000000BD
:1003400000000000000000000000000000000000AD
:10035000000000000000000000000000000000009D
:10036000000000000000000000000000000000008D
:10037000000000000000000000000000000000007D
:10038000000000000000000000000000000000006D
:10039000000000000000000000000000000000005D
:1003A0000000000000000000000000E0E1E2E300C7
:1003B000E5E6010000000000000000000000000071
:1003C00000000000000000000000003C0355005346
:1003D000004200200074006F0020005500530042CE
:1003E0000020006B006500790062006F0061007200
:1003F000006400200063006F006E007600650072EC
:100400000074006500720000000E0374002E006D81
:10041000002E006B002E0000000403090409027482
:1004200000040100A03209040000010301010009D9
:1004300021110100012240000705810308000A097B
:100440000401000103010200092111010001224DF4
:10045000000705820308000A0904020001030000E6
:10046000000921110100012236000705830308005D
:100470000A09040300020300000009211101000120
:100480002222000705840320000107050403200041
:10049000011201100100000008EDFE5B00140801CC
:1004A0000200010631FF0974A1010975150026FF3C
:1004B000009520750881020976150026FF00952019
:1004C00075089102C005010980A10185021601008D
:1004D0002637001A81002AB700751095018100C0E7
:1004E000050C0901A1018503160100269C021A01D1
:1004F000002A9C02751095018100C005010902A126
:10050000010901A100050919012905150025019519
:100510000575018102950175038101050109300905
:10052000311581257F9502750881060938158125C9
:100530007F950175088106050C0A38021581257F13
:10054000950175088106C0C005010906A1010507CE
:1005500019E029E71500250195087501810295012B
:100560007508810105081901290595057501910294
:100570009501750391010507190029FF150026FF54
:1005800000950675088100C07F09ED0911241FBE82
:10059000CFEFDAE0DEBFCDBF04B603FE28C0809106
:1005A000CC059091CD05A091CE05B091CF058730B7
:1005B000904BA740B04BD9F41092CC051092CD05CA
:1005C0001092CE051092CF0514BE0FB6F894A895E0
:1005D00080916000886180936000109260000FBE7F
:1005E0001092010810920008E0E0F8E3099511E08C
:1005F000A0E0B1E0EAEAF7E602C005900D92A63964
:10060000B107D9F725E0A6E9B1E001C01D92AC3CE5
:10061000B207E1F712E0C6ECD2E004C02197FE0178
:100620000E949F33C43CD107C9F70E94F91B0C9468
:10063000B9330C940000FC01611106C0828188234B
:1006400019F08CEA90E0089590E080E008950F930F
:100650001F93FC01862F61110CC09581292F207FEB
:100660003281332349F0222321F090FF02C09F7092
:1006700095831F910F9108952223D1F04091A105F8
:100680005091A2056091A3057091A4058A019B0178
:10069000369527951795079500FD08C040FF02C0C5
:1006A00080E08F5F1F910F910C94EC2B81E0F9CFCC
:1006B00080E0F8CF80E00895089580E00895CF931A
:1006C000DF93CDB7DEB728970FB6F894DEBF0FBE25
:1006D000CDBFE22F29833A834B835C836D837E8376
:1006E0008F8398872091D2022E2B2093D202FE0175
:1006F0003396AE01475F5F4F2191243060F0A4ED47
:10070000B2E090E080E03D91311111C08E529D4FDA
:10071000DC0112962C93E417F50771F728960FB6B3
:10072000F894DEBF0FBECDBFDF91CF910895019643
:100730008630910541F7EFCF70E0660F771F680FA5
:10074000791FFB015687458781E00895FC01878961
:100750000895CF93DF93EC018C819D81DC01ED91B5
:10076000FC910480F581E02D6E8109951F86188A21
:1007700081E08A8B1E821B8A1C8A1D8A1E8A1F8A20
:1007800080E0DF91CF910895FC018681089581E09A
:10079000633009F080E0089581E0613009F080E085
:1007A000089570E0660F771F680F791FFB0185853C
:1007B00096850895EF92FF92CF93DF93FC01E701B6
:1007C0008289823021F16787408B9B8193709330BF
:1007D000F1F49A8197FF1BC02E81308D321708F4F7
:1007E000208F282F30E0D901AA0FBB1FA20FB31F03
:1007F000AE0FBF1F9F7017969C9317979C811896FA
:100800009C93189794E019969C938F5F828BDF914D
:10081000CF91FF90EF900895EF92FF920F93029780
:100820000E94DA030F91FF90EF9008950895CF9200
:10083000DF92EF92FF920F931F93CF93DF93CDB789
:10084000DEB766970FB6F894DEBF0FBECDBF6C0162
:10085000DC0157968C91811111C0F12C8F2D669679
:100860000FB6F894DEBF0FBECDBFDF91CF911F91C1
:100870000F91FF90EF90DF90CF9008950E94020AB1
:100880006B8B7C8B8D8B9E8BF60183899489A589DC
:10089000B6892B893C894D895E89281B390B4A0B07
:1008A0005B0BDA01C901B7FDD8CF4285838590E0A3
:1008B0009A8B898BE12C8E010F5F1F4F9E012F5E5B
:1008C0003F4F6681848195810E94FA12F82E811132
:1008D00014C029893A892330310578F0D6011D9654
:1008E0008D919C91009749F0DC01ED91FC91019074
:1008F000F081E02D40E0B60109950E94020A6B8B61
:100900007C8B8D8B9E8BF601808D2B893C894D894C
:100910005E89280F311D411D511DDA01C901838BEC
:10092000948BA58BB68B9ACF3F924F925F926F922A
:100930007F928F929F92AF92BF92CF92DF92EF926F
:10094000FF920F931F93CF93DF93CDB7DEB7EB9753
:100950000FB6F894DEBF0FBECDBF7C01562E342EED
:10096000422EDC0114968D909C90159716968C91D2
:10097000169719ED81110FC058961C92D401ED9174
:10098000FC910190F081E02D60E0C40109956C01BB
:100990000097D1F416ED812FEB960FB6F894DEBFD9
:1009A0000FBECDBFDF91CF911F910F91FF90EF90C0
:1009B000DF90CF90BF90AF909F908F907F906F907F
:1009C0005F904F903F900895FC016080718017ED1B
:1009D0006114710401F35701F7E0AF0EB11CDC01A3
:1009E0001196BC92AE9214964C928E01065D1F4FEA
:1009F00028E030E040E060E0F701848195810E94CA
:100A0000C310182F8111EAC01AA5D6016D927C92ED
:100A1000D401ED91FC910280F381E02D232D40E083
:100A2000652DC4010995282FF7018683882309F4D1
:100A3000D3C089A9808740E060E0848195810E94CD
:100A40007111582ED401ED91FC91882379F0D601D3
:100A500014961C920480F581E02DD70116966C91B6
:100A6000C4010995F7011682152D95CFD701169669
:100A70006C91D60114961C920190F081E02DC40176
:100A80000995FC01892B09F485CF4482950141E049
:100A9000F7016681848195810E94290C111136C06D
:100AA0004BAC8DE1882E81E0982E3701F2E06F0E7D
:100AB000711C6E0181E1C80ED11C541409F445C0AB
:100AC0009A8289827C826B821D821A861B861E8690
:100AD000188A1F8619A21AA21BA219A6DF82CE822B
:100AE000D986C886DD86CC868E010F5F1F4F252DE7
:100AF00040E0F7016681848195810E941111D70140
:100B000052968C91823031F15394D7CF133108F043
:100B100012E1212F30E08E01065D1F4F40E0D7012A
:100B200016966C91169714968D919C910E94C31005
:100B3000182F882309F4B4CFD701ED91FC910480DC
:100B4000F581E02DC701099526CFF701828911EDC6
:100B5000823091F7950142E0D70116966C91169775
:100B600014968D919C910E94290C68EE73E080E0B0
:100B700090E00E94040AF701278540E066818481A5
:100B800095810E94D512182F8111D6CF68EE73E09F
:100B900080E090E00E94040AD70159964C9160E0F1
:100BA000C7010E940715182F8111C6CF20E040E031
:100BB00060E0C7010E94DD1483E291E09A8389839B
:100BC000AE014F5F5F4F70E060E0C7010E946D149F
:100BD00081E0F701878BDFCE14EDDDCEF601718267
:100BE0006082AACF4F925F926F927F928F929F9274
:100BF000AF92BF92CF92DF92EF92FF920F931F932B
:100C0000CF93DF9300D000D0CDB7DEB76C017C83EB
:100C10006B835A83498384E0482E360182E1680E53
:100C2000711C5601A7E0AA0EB11C12E05524539482
:100C30004601B0E18B0E911C2B813C8121153105C1
:100C400009F4C8C0F60180A1823019F1C8F58111FC
:100C500008C01483858196819087878312871187C6
:100C600050A2AE014D5F5F4FBE016F5F7F4FC50168
:100C70000E940F19882309F4ADC0D6011596ED9195
:100C8000FC911697808191968C9391978181929691
:100C90008C93F60176826582D60192968C9192971A
:100CA000843011F493961C92F60181A182508483C2
:100CB00025813681308727838287818740A205C0BE
:100CC000833051F3843009F0B9CFD60192968C91DC
:100CD00092978430D1F0853009F442C0823009F017
:100CE0006CC0AE014D5F5F4FBE016F5F7F4FC501AE
:100CF0000E940F19882309F46DC0F601858984A329
:100D0000F6019682858210A297CFAE014D5F5F4FAC
:100D1000BE016F5F7F4FC5010E940F19882309F440
:100D200059C0D60155968C915597833049F7569600
:100D30008C915697813021F798969C919897579669
:100D40008C91992351F08823D9F2F60153A292890C
:100D500096A3938997A385A3D3CF813089F6F5CF46
:100D6000AE014D5F5F4FBE016F5F7F4FC5010E94B7
:100D70000F19882379F1D60193968C919397882344
:100D800009F4BECF12968D919C91009709F4B8CFCB
:100D9000DC01ED91FC910190F081E02D7401D60110
:100DA00095960C91959797962C91979796964C912E
:100DB000969794966C910995A3CFF6018585882323
:100DC000F1F0813039F1D6011E968D919C91892BDD
:100DD00009F496CF0F900F900F900F90DF91CF9165
:100DE0001F910F91FF90EF90DF90CF90BF90AF9049
:100DF0009F908F907F906F905F904F900895919605
:100E00008C9191978250990B1F969C938E931E976D
:100E10001D965C922B813C8189819A81782F692F64
:100E2000F601468557854115510581F0019621153A
:100E3000310539F041505109578746872150310912
:100E4000EDCF1C821B8279836A83BDCF3C832B83C9
:100E50009A8389831586B7CFCF93DF936091F00192
:100E60007091F1014091E4015091E5012091D80188
:100E70003091D9018091CC019091CD01E0919E01FA
:100E8000F0919F016E177F07B1F4E0919C01F09102
:100E90009D01E417F50779F4E0919A01F0919B0127
:100EA000E217F30741F4E0919801F0919901E817F6
:100EB000F90709F486C070939F0160939E015093D7
:100EC0009D0140939C0130939B0120939A01909344
:100ED00099018093980188E0E2EDF2E0DF011D9234
:100EE0008A95E9F72091E8013091E9014091EA0102
:100EF0005091EB016091EC017091ED018091EE0158
:100F00009091EF010E945F032091DC013091DD019F
:100F10004091DE015091DF016091E0017091E101AB
:100F20008091E2019091E3010E945F032091D00142
:100F30003091D1014091D2015091D3016091D401FF
:100F40007091D5018091D6019091D7010E945F03E5
:100F50002091C4013091C5014091C6015091C70153
:100F60006091C8017091C9018091CA019091CB0133
:100F70000E945F0381E08093D1020E948F0AD82FE4
:100F8000C92F8AE592E00E9439138D2F9C2F0E9471
:100F9000BB0A8AE592E00E940C0C90919701891798
:100FA00061F08AE592E00E940C0C809397018039F1
:100FB00021F40E945D210E945E2281E0DF91CF91A9
:100FC00008951092D102D9CF382F20E1829FC0011D
:100FD0001124805E9109089700F59091D20299231F
:100FE000E1F0892F90E0E4EDF2E041E050E0219162
:100FF000243070F0622F62956F70631309C02F70F8
:10100000BA0102C0660F771F2A95E2F7862B972B4D
:1010100022E0EA3DF20759F7089590E080E0E3CF3F
:101020000895CF92DF92EF92FF920F93CF93DF93C9
:101030000F92CDB7DEB7898380915702882371F074
:10104000CE0101966C01EE24E394F12C00E022E045
:1010500040E060E080E492E00E94B01480913D02A4
:10106000882371F0CE0101966C01EE24E394F12CFB
:1010700000E022E040E060E086E292E00E94B014EE
:1010800080912302882371F0CE0101966C01EE2439
:10109000E394F12C00E022E040E060E08CE092E09C
:1010A0000E94B01480910902882371F0CE0101964C
:1010B0006C01EE24E394F12C00E022E040E060E0DB
:1010C00082EF91E00E94B0140F90DF91CF910F91C9
:1010D000FF90EF90DF90CF9008950E947C2E80913A
:1010E000C105882331F00E94A52E882321F00C949D
:1010F000011D0C942C070895FC019B0175836483EA
:1011000089E291E09183808387E491E093838283F5
:10111000138A148A158A168A178A418F81E0828B76
:10112000118A178288E080878CE381871286138674
:1011300084E0848716861586178661157105B1F0DF
:10114000DB01AA5ABF4F90E080E04D915D91452BA5
:1011500049F4DC019B96AA0FBB1FA20FB31FED93AE
:10116000FC93089501968031910579F708952E9AA0
:1011700008952E988EBD0DB407FEFDCF1EBC0DB494
:1011800007FEFDCF0E94B7088EB508952E988260A5
:101190008EBD0DB407FEFDCF6EBD0DB407FEFDCFB5
:1011A0000C94B70888EF0E94B908807C803849F019
:1011B00028F4882371F18034E9F00895803C39F1F6
:1011C000089588ED0E94B9089091960181FD0AC0AA
:1011D000923029F161EC88ED0E94C60882E080938C
:1011E000960108959330D9F063EC88ED0E94C6080B
:1011F00083E0F5CF88ED0E94B9089091960181FDBA
:1012000003C0933089F70895923021F7089581E063
:10121000E6CF61ED88ED0E94C60810929601089510
:101220000F931F93CF93DF93EC01269A0E94B70888
:10123000219A229A2398209A80E58CBD81E08DBD69
:10124000259868E188E80E94C60860E288E70E9465
:10125000C60860E088E70E94C60810E000E088E663
:101260000E94B9080F5F1F4F80FF22C061EC88ED1C
:101270000E94C60860E280ED0E94C60864E088EE25
:101280000E94C60888EE0E94B90882FFFBCFCE01FB
:101290000E94D20860E288EC0E94C60861E080E803
:1012A0000E94C60880E0DF91CF911F910F910895B1
:1012B0000F3F1007A1F68FEFF6CF8091B405816044
:1012C0008093B4058AE592E00E94100986EE91E0D1
:1012D00090934E0280934D028AED91E090933402F8
:1012E000809333028EEC91E090931A02809319025E
:1012F00082EC91E0909300028093FF0108958AE5CB
:1013000092E00E94DC0B40E06AE572E080E492E04B
:101310000E947C0840E06AE572E086E292E00E946A
:101320007C0840E06AE572E08CE092E00E947C0874
:1013300040E06AE572E082EF91E00E947C088DE473
:1013400091E09093E7018093E6019093DB01809315
:10135000DA019093CF018093CE019093C3018093E3
:10136000C2016AE572E081EB91E00E9484176AE5B0
:1013700072E080EA91E00C9484170F931F93CF934F
:10138000DF93EC01F8018281813059F0DE01129681
:1013900088E001900D928A95E1F70E94020A7B870E
:1013A0006A87DF91CF911F910F910895089590E082
:1013B00080E008958FEF9FEF089581E090E0089519
:1013C000862F0E94FC1A81E090E00895FB01808145
:1013D0000E94FC1A81E090E00895EAEDF2E01382A9
:1013E000128288EE93E0A0E0B0E084839583A68328
:1013F000B78383E591E0918380838FEF9FEF95879B
:10140000848708950C949B0ACF92DF92EF92FF920B
:101410000F931F93CF93DF9300D000D000D0CDB7B0
:10142000DEB70E9467326B017C0120E030E04AE7C2
:1014300055E46983DA828B83FC8269817A818B81AE
:101440009C810E941E338B018E839D8320E030E0BF
:1014500040E85FE369831A838B839C8369817A8187
:101460008B819C810E942C3287FD4DC020E03FEF94
:101470004FE757E469817A818B819C810E941933FF
:1014800018168CF520E030E040E251E4C982DA829F
:10149000EB82FC8269817A818B819C810E941E3360
:1014A00069837A838B839C8369817A818B819C8118
:1014B0000E943832CB0120E931E0009779F426967A
:1014C0000FB6F894DEBF0FBECDBFDF91CF911F9155
:1014D0000F91FF90EF90DF90CF900895F901319731
:1014E000F1F70197EACF09831A838E818B838D816F
:1014F0008C8369817A818B819C810E943832CB01F7
:101500000197F1F7DCCF81E090E0FACF82E084BD73
:1015100093E095BD9AEF97BD80936E0008952FB725
:10152000F89480912A0390912B03A0912C03B09101
:101530002D032FBF0895CF93DF9300D000D0CDB7F8
:10154000DEB78FB7F89420912A0330912B03409196
:101550002C0350912D0329833A834B835C838FBFE7
:1015600069817A818B819C810F900F900F900F90F1
:10157000DF91CF9108959C014FB7F89480912A0391
:1015800090912B03A0912C03B0912D034FBF821B90
:10159000930B089578941F921FB61F9211248F9376
:1015A0009F93AF93BF9380912A0390912B03A091B7
:1015B0002C03B0912D030196A11DB11D80932A0328
:1015C00090932B03A0932C03B0932D03BF91AF9165
:1015D0009F918F911F901FBE1F901895CF93DF93FF
:1015E000FC0167FD12C0283080F4442319F0858186
:1015F000873059F0EF01A1E0B0E08D85882321F11B
:1016000011962596A031B105C1F780E037C081E081
:1016100088872BC0862F8770880F880F880F4423F8
:1016200081F065816F5F658367706064862B95E0EC
:101630009A9F90019B9F300D1124E20FF31F80872A
:101640001DC02770822BF3CF6111E4CF85E08A9F04
:10165000E0018B9FD00D1124CE0FDF1F4423B9F280
:1016600081E4888785818F5F858325E02A9FC0017B
:101670002B9F900D1124E80FF91F8085DF91CF91EA
:101680000895DF92EF92FF920F931F93CF93DF9312
:10169000EC01E62EF12C85E0FE01869FE00DF11DA8
:1016A0001124908596FF24C0192F177001E085E062
:1016B000D82E8FEF800F8F3008F001E0602F70E0A0
:1016C000062FD69EF001D79EF00D1124EC0FFD1FC2
:1016D00080858695869586958770181701F16F5FCE
:1016E0007F4F603168F38D81811302C011501D83DB
:1016F00085E08E9DF0018F9DF00D1124EC0FFD1FF4
:10170000108681E0818712862296D783C683DF9177
:10171000CF911F910F91FF90EF90DF900895CE0130
:101720000E94410BC6CF9C01FC0181E0611103C006
:10173000C901069608959585691739F08F5F35962A
:101740008031C9F790E080E008952A5F3F4FA901FA
:1017500065E0869F400D511D1124CA010895FC01CA
:10176000862FDF0161E08134D1F4CF01855B9F4F8B
:1017700041E09F012E5F3F4F1D961C921D971E96C4
:101780004C931E971F961C921F971C963C932E936A
:101790001B971596A817B90779F7158208951D9616
:1017A0009C911D97891729F06F5F15966031B9F7E5
:1017B0000895CF010C94410BFC0185E691E09183E3
:1017C0008083108681E081871286CF0102969783FD
:1017D0008683128228E023832CE324831582DF0191
:1017E0009F01255B3F4F41E01D961C921D971E9661
:1017F0004C931E971F961C921F971C969C938E933A
:101800001B971596A217B30779F7EA58FF4F108276
:1018100081E1809332030895809132030895CF933C
:10182000C42F0E94930BFC01892B79F08081918158
:10183000009769F0338120E0321739F0FC014081D4
:101840004C1729F003962F5FF7CF90E080E0CF91FF
:1018500008950F931F93CF93DF93162F042FE90161
:10186000209781F00E94930BFC0186ED309729F0C0
:101870001283D183C083038380E0DF91CF911F91D6
:101880000F91089588EDF9CFCF92DF92FF920F93D9
:101890001F93CF93DF938C01F62E662371F16C01B9
:1018A00086E5C80ED11CD0E0C0E0D6018D919D9197
:1018B0006D010097F1F0DC01ED91FC910084F18560
:1018C000E02D09958F1115C0AB96CC0FDD1FC00F11
:1018D000D11F88819981DC01ED91FC910480F58113
:1018E000E02DDF91CF911F910F91FF90DF90CF906E
:1018F00009942196C031D105C1F680E0DF91CF91E6
:101900001F910F91FF90DF90CF9008952E9808952A
:10191000CF93C82F0E94860CCEBD0DB407FEFDCF1D
:101920001EBC0DB407FEFDCF0E94B7088EB5CF9147
:101930000895CF93DF93C82FD62F0E94860CC260E4
:10194000CEBD0DB407FEFDCFDEBD0DB407FEFDCF4D
:10195000DF91CF910C94B708AF92BF92CF92DF92F4
:10196000EF92FF920F931F93CF93DF93EC01F62E2C
:10197000E42E590168010E94930B8C0186ED01153C
:101980001105F1F1D8018D919C91892B09F445C085
:101990004E2D6F2DCE010E940F0CFC01D5018D93B1
:1019A0009C938BED309761F18281282F26952695A7
:1019B000803408F02FE081E090E0A0E0B0E004C0C7
:1019C000880F991FAA1FBB1F2A95D2F70197F6010E
:1019D000918380836F2D80EE0E94990C88ED0E9488
:1019E000880C682FD80114968C918823A1F0CA58CE
:1019F000DF4F8881682B626088ED0E94990C80E03F
:101A0000DF91CF911F910F91FF90EF90DF90CF90DA
:101A1000BF90AF900895697FEFCF87EDF1CF8F92A0
:101A20009F92AF92BF92CF92DF92EF92FF920F936D
:101A30001F93CF93DF9300D000D000D0CDB7DEB797
:101A4000C62E4E8389010E94020A4B015C0188E880
:101A5000880E83E1981EA11CB11CF12CE12CD12C25
:101A60001D828E818C298E830E94020ADC01CB01AB
:101A700088199909AA09BB09B7FF20C06E8180EFB8
:101A80000E94990C0E94020ADC01CB018819990975
:101A9000AA09BB09B7FF09C088EC0E94880C87FF20
:101AA000F1CF60E888EC0E94990C88EF0E94880CC6
:101AB0008F708D838430B1F08E3001F18D81269648
:101AC0000FB6F894DEBF0FBECDBFDF91CF911F914F
:101AD0000F91FF90EF90DF90CF90BF90AF909F90CD
:101AE0008F9008958FEFE81AF80A0115110509F48F
:101AF000BBCFE016F10609F0B7CFE0CFD39483E077
:101B0000D812B2CFDBCF9F92AF92BF92CF92DF922B
:101B1000EF92FF920F931F93CF93DF937C01C42F1B
:101B2000122F902E01E0C62ED12CCC0CDD1CCE0C39
:101B3000DF1C86E5C80ED11CA42EB12CABE2AA0E88
:101B4000B11CAA0CBB1CAE0CBF1CF601808191819C
:101B5000DC01ED91FC910280F381E02D292D412FD4
:101B60006C2F0995D82F803EC9F5C1112BC061E0BB
:101B700088EE0E94990C66E670E080E090E00E949A
:101B8000040AF60180819181DC01ED91FC910190C4
:101B9000F081E02D292D412F6C2F0995D82F8D3004
:101BA000D1F58FEF800F8330F8F0C11137C061E0BD
:101BB00088EE0E94990C66E670E080E090E00E945A
:101BC000040A1CC0F50180819181DC01ED91FC913A
:101BD0000284F385E02D612F0995D3CF8D3061F418
:101BE0008FEF800F833050F464E670E080E090E087
:101BF0000E94040A0F5FA9CF882319F28D2FDF916D
:101C0000CF911F910F91FF90EF90DF90CF90BF90F9
:101C1000AF909F900895882389F3C7CF4C2F50E051
:101C2000455D5F4F440F551F4E0D5F1DFA018081CA
:101C30009181DC01ED91FC910284F385E02D612F0F
:101C40000995DCCF0F931F93CF93DF93D82FC62F27
:101C50008A010E94860CD260DEBDF8018C2F800FB5
:101C60000DB407FEFDCF91919EBD8E13F9CFC150EB
:101C70006C2F70E06F5F7F4F060F171F0DB407FECC
:101C8000FDCF0E94B708C801DF91CF911F910F913E
:101C900008952F923F924F925F926F927F928F9210
:101CA0009F92AF92BF92CF92DF92EF92FF920F93EB
:101CB0001F93CF93DF93CDB7DEB72C970FB6F89471
:101CC000DEBF0FBECDBF6B877C871A01790168012B
:101CD000EB85FC8581808FEF880D803408F0B6C0DD
:101CE0000E94020A69837A838B839C832B013C01C7
:101CF000F8E84F0EF3E15F1E611C711CEB85FC855B
:101D0000828160E480FD60E888EE0E94990C19826F
:101D1000912CE114F10409F449C08401E814F90498
:101D200008F487010E83A601602F80E10E94220E35
:101D3000602F88E30E94990CEB85FC8560816062CE
:101D400080EF0E94990C88EC0E94880C87FFFBCFE3
:101D500060E888EC0E94990C88EF0E94880C8F70D4
:101D60008983B12CA12C1D82F981FF2309F441C084
:101D70000E94020A6F83788789879A87DC01CB01EA
:101D800084199509A609B709B7FF33C08981863040
:101D9000D1F18E3099F1843049F4EFEFAE1ABE0ADA
:101DA0002114310481F1A214B30469F588EF0E9473
:101DB000880CEB85FC85928185FB90F99283898163
:101DC0002C960FB6F894DEBF0FBECDBFDF91CF913A
:101DD0001F910F91FF90EF90DF90CF90BF90AF9049
:101DE0009F908F907F906F905F904F903F902F903B
:101DF0000895E01AF10AC00ED11E8BCFFD81FF5F5E
:101E0000FD83F33099F260E088E30E94990CF601BB
:101E1000608180E10E94990C6E8188E30E94990C98
:101E2000EB85FC856081606280EF0E94990C88ECF4
:101E30000E94880C87FFFBCF60E888EC0E94990C19
:101E400088EF0E94880C8F7089838ECFFAEDF9831A
:101E5000B6CF2F923F924F925F926F927F928F9266
:101E60009F92AF92BF92CF92DF92EF92FF920F9329
:101E70001F93CF93DF93CDB7DEB729970FB6F894B2
:101E8000DEBF0FBECDBF8F83F92E6B01542E452EC2
:101E900059014801D9016D907C901197FB01F181A6
:101EA000F9831D921C92DB0112968C9160E181FDF9
:101EB00060E288EE0E94990C6A828E2D90E0B0E07C
:101EC000A0E08B839C83AD83BE83252D342DD6016A
:101ED0004C9160E08F819F2D0E940F0D382EB6E04F
:101EE0008B1799F381115DC088EC0E94880C82FFEA
:101EF0007CC080E30E94880C282E8615170411F000
:101F000008F02A80F501808191819301281B390B0B
:101F10003987288737FF02C019861886022D10E0FE
:101F2000888599852816190614F419870887388436
:101F30000E94860C98E09EBD0DB407FEFDCF982D43
:101F4000892D332061F01EBC3A940DB407FEFDCFFD
:101F5000E92FF82F8EB581939E2F8F2FF2CFA88572
:101F6000B9858A0E9B1E0E94B70864E088EC0E9427
:101F7000990CF50180819181080F191F118300834D
:101F8000F9812F1618F00615170528F188EF0E9421
:101F9000880CD60112969C91129784FB91F91296A7
:101FA0009C93832D29960FB6F894DEBF0FBECDBF4C
:101FB000DF91CF911F910F91FF90EF90DF90CF9025
:101FC000BF90AF909F908F907F906F905F904F9059
:101FD0003F902F900895EE2009F477CF6B817C819C
:101FE0008D819E810E94040A70CF80EF382ED9CF58
:101FF0002F923F924F925F926F927F928F929F9219
:10200000AF92BF92CF92DF92EF92FF920F931F9306
:10201000CF93DF93CDB7DEB761970FB6F894DEBFED
:102020000FBECDBFD82EF92E342E222E098B2401BF
:102030008EA09FA068A479A4188A1F861E861D867C
:102040008E01035F1F4F9E01215F3F4F0E94AC0C2A
:10205000182F81117EC0298289898A83EB82CC82E4
:10206000AD82BE8258864F82AE014F5F5F4F68E0FF
:1020700080E20E94220E2D853E85432D60E18D2D4C
:102080009F2D0E940F0D182F811163C061147104E0
:1020900009F445C0EF85F889828127FE4CC0826033
:1020A00082835201A114B10409F451C09A2D8B2DE1
:1020B0008A149B0410F4982D892D9B878C874D855D
:1020C0005E856F857889E12C83019E01255F3F4FF6
:1020D0008D2D9F2D0E94290F182F863019F3811105
:1020E00038C0AAA5BBA5109799F06B857C85ED91AA
:1020F000FC9111970190F081E02DC2018A199B0992
:102100009A8789879E01275F3F4FA301CD010995DB
:102110008B859C85A81AB90A8815990518F62D850E
:102120003E8560E827FC60EA432D8D2D9F2D0E949F
:102130000F0D182F0EC0816082834D855E8583014F
:102140009401BF018D2D9F2D0E94490E182F112340
:1021500031F3812F61960FB6F894DEBF0FBECDBF6D
:10216000DF91CF911F910F91FF90EF90DF90CF9073
:10217000BF90AF909F908F907F906F905F904F90A7
:102180003F902F9008958F929F92AF92BF92CF92DF
:10219000EF920F931F9349011F921F921F930F936A
:1021A0009F922F93B12CA12CCC24C394E12C06E058
:1021B00020E80E94F80F0F900F900F900F900F9053
:1021C0000F901F910F91EF90CF90BF90AF909F9085
:1021D0008F9008958F929F92AF92BF92CF92EF927D
:1021E000FF920F9349011F921F92FF92EF929F92CD
:1021F0002F93B12CA12C22E0C22EE02E06E020E885
:102200000E94F80F0F900F900F900F900F900F906B
:102210000F91FF90EF90CF90BF90AF909F908F90D5
:1022200008954F925F926F927F928F929F92AF929A
:10223000BF92CF92DF92EF92FF920F931F93CF93B3
:10224000DF93CDB7DEB7C054D1090FB6F894DEBF27
:102250000FBECDBF782ED92E662E542E422EC02E04
:10226000CE0101965C017C01022F29E030E0872D30
:102270009D2D0E94EA1081111CC08B809C801F93B1
:10228000CF92BF92AF921F9280E48F93B12CA12C7A
:1022900082E0C82EE42C06E020E8452D662D872D2F
:1022A0009D2D0E94F80F0F900F900F900F900F90A0
:1022B0000F90C05CDF4F0FB6F894DEBF0FBECDBFEE
:1022C000DF91CF911F910F91FF90EF90DF90CF9012
:1022D000BF90AF909F908F907F906F905F904F9046
:1022E00008958F929F92AF92BF92CF92EF920F93E9
:1022F000CF93E22E1F921F921F921F921F921F9246
:10230000912C812CB12CA12CC12C05E020E00E9445
:10231000F80FC82F6CE271E080E090E00E94040AA0
:102320000F900F900F900F900F900F908C2FCF91D8
:102330000F91EF90CF90BF90AF909F908F900895A6
:102340000F931F93CF93DF93EC01122F8E819F8108
:10235000892B21F12A87242F40E0CE010E94EE0A2A
:10236000082F8823E9F0682FCE010E94930BFC010F
:10237000892BC1F01483202F40E060E0CE010E9441
:102380007111182F882321F0602FCE010E94AF0B0E
:10239000812FDF91CF911F910F91089517EDF8CF05
:1023A00014EDF6CF16EDF4CF2F923F924F925F923D
:1023B0006F927F928F929F92AF92BF92CF92DF9255
:1023C000EF92FF920F931F93CF93DF93CDB7DEB7BA
:1023D00068970FB6F894DEBF0FBECDBF7C01262EE6
:1023E000342E422E1B8A88E08C8B8CE38D8BD70198
:1023F0001696CD90DC901797CE01439617969C9336
:102400008E9316971A962C938E010F5F1F4F22E121
:1024100030E040E060E0C7010E94C310582EF70191
:10242000D782C68281115AC0A984BA848B849C84C5
:10243000FD81FF8B8E81888F6701A6E5CA0ED11CB6
:1024400036011E8AF301819191913F010097B9F401
:10245000FE89FF5FFE8BF031A9F7F6018191919122
:102460006F01009709F061C05394F0E15F12F5CF5E
:10247000242D432D622DC7010E94A0112FC0DC0125
:10248000ED91FC910084F185E02D09958111E0CF5B
:10249000F301929182918F01DC01ED91FC91008812
:1024A000F189E02D688D0995882391F2F8018081EA
:1024B0009181DC01ED91FC910484F585E02DA4016E
:1024C000B5010995882319F1042D232D422D6E891C
:1024D000C7010E94830D813D09F4BACF68960FB6FB
:1024E000F894DEBF0FBECDBFDF91CF911F910F914A
:1024F000FF90EF90DF90CF90BF90AF909F908F9024
:102500007F906F905F904F903F902F900895F801CB
:1025100080819181DC01ED91FC910684F785E02DAD
:102520006F8909958111D0CF93CFDC01ED91FC919A
:102530000084F185E02D0995811196CFF6019291E5
:1025400082918F01DC01ED91FC910088F189E02DF1
:10255000688D099581110DC0042D232D422D652D07
:10256000C7010E94830D982F977F913D09F0B6CF48
:102570007BCFF80180819181DC01ED91FC91048495
:10258000F585E02DA401B501099581116DCFF80104
:1025900080819181DC01ED91FC910684F785E02D2D
:1025A0006F8909958823C1F25FCF8F929F92AF9276
:1025B000BF92CF92EF920F93E22E1F921F921F9223
:1025C0001F921F921F92912C812CB12CA12CC12CF7
:1025D00009E020E00E94F80F0F900F900F900F90ED
:1025E0000F900F900F91EF90CF90BF90AF909F9072
:1025F0008F9008959F92AF92BF92CF92DF92EF9209
:10260000FF920F931F93CF93DF9300D000D0CDB7ED
:10261000DEB7D82EF92EB22EC32E902EA12E1C82FC
:102620001B821A8219828E010F5F1F4F9E012D5F40
:102630003F4F0E94AC0C81110CC049815A816B81C3
:102640007C81092D1A2D2B2D3C2D8D2D9F2D0E9427
:10265000290F0F900F900F900F90DF91CF911F9146
:102660000F91FF90EF90DF90CF90BF90AF909F9031
:102670000895AF92BF92CF92DF92EF92FF921F9395
:10268000CF93DF9300D000D000D0CDB7DEB78D83DD
:102690009E831D990FC088EC0E94880C682F607281
:1026A00085FF05C08D819E810E94D20860E288EC82
:1026B0000E94990C80919601823099F048F4811122
:1026C0000CC080913203807F803129F081E106C007
:1026D00011E0833039F010E029C083E180933203A8
:1026E000FACF10E080913203807F8031F9F40E94AC
:1026F000020A69837A838B839C83DC01CB01885334
:102700009F4FAF4FBF4F80932E0390932F03A09303
:102710003003B093310380E28093320380ED0E9456
:10272000880C682F6F7D80ED0E94990CED80FE80F3
:1027300026E5E20EF11CCD80DE8036E7C30ED11C0B
:102740005701D5018D919D915D01009739F0DC0114
:10275000ED91FC910680F781E02D0995AC14BD0444
:1027600081F780913203803409F477C0C0F480325D
:1027700009F44BC0803309F462C0813181F126969F
:102780000FB6F894DEBF0FBECDBFDF91CF911F9182
:10279000FF90EF90DF90CF90BF90AF90089581357C
:1027A00009F46EC0803809F488C0803541F788ECA0
:1027B0000E94880C86FFE3CF81E5809332030E945C
:1027C000020ADC01CB014496A11DB11D80932E03AA
:1027D00090932F03A0933003B0933103D0CFF60131
:1027E0001082D7018D919D917D01009739F0DC0118
:1027F000ED91FC910480F581E02D0995EC14FD0428
:1028000081F782E180933203BACF0E94020A698382
:102810007A838B839C8380912E0390912F03A091C8
:102820003003B091310329813A814B815C81281BAF
:10283000390B4A0B5B0BDA01C901B7FDA0CF80ED64
:102840000E94880C682F606280ED0E94990C61E004
:1028500088EE0E94990C80E4D5CF88EE0E94880C07
:1028600080FD8DCF60E488EC0E94990C88ED0E9479
:10287000880C682F686088ED0E94990C80E5C2CFB3
:102880000E94020A69837A838B839C8380912E0342
:1028900090912F03A0913003B091310329813A81A7
:1028A0004B815C81281B390B4A0B5B0BDA01C90198
:1028B000B7FD65CF80E880933203212F40E060E0D0
:1028C0008D819E810E94D411882329F0823D09F4D4
:1028D00056CF80EA97CF80E995CF8F929F92AF92A3
:1028E000BF92CF92EF920F93CF93DF93CDB7DEB726
:1028F000C054D1090FB6F894DEBF0FBECDBFFC01A6
:102900005B01848195815F934F939E012F5F3F4FC1
:102910003F932F931F9220E42F9320E8822E912C37
:1029200032E2C32EE12C06E021E840E066810E94FD
:10293000F80F0F900F900F900F900F900F90C05CBA
:10294000DF4F0FB6F894DEBF0FBECDBFDF91CF9142
:102950000F91EF90CF90BF90AF909F908F90089580
:102960008F929F92AF92BF92CF92DF92EF92FF929F
:102970000F93FC014701A42EB12C848195811F92F5
:102980001F92DF92CF929F92EF92C22EE02E09E02B
:1029900021E2462F66810E94F80F0F900F900F9052
:1029A0000F900F900F900F91FF90EF90DF90CF90CE
:1029B000BF90AF909F908F9008958F929F92AF920B
:1029C000BF92CF92EF920F93FC01E42EC22EA62E5F
:1029D000B12C848195811F921F921F921F921F928A
:1029E0001F92912C812C0AE021E240E066810E9436
:1029F000F80F0F900F900F900F900F900F900F9176
:102A0000EF90CF90BF90AF909F908F9008958F924E
:102A10009F92AF92BF92CF92EF920F93FC01E42E60
:102A2000A62EB12C848195811F921F921F921F9216
:102A30001F921F92912C812CC12C0BE021E240E0CF
:102A400066810E94F80F0F900F900F900F900F90DB
:102A50000F900F91EF90CF90BF90AF909F908F907D
:102A6000089581E00895FC018285089581E0693030
:102A700009F080E00895CF93DF93EC018A819B8178
:102A8000DC01ED91FC910480F581E02D6A850995CA
:102A90008A85813439F4EA81FB81EA58FF4F8081CD
:102AA0008B7F80831A861B861C861D861E861F864A
:102AB000188A80E0DF91CF9108958F929F92AF9214
:102AC000BF92CF92EF920F93FC01E62EB22EA42E6E
:102AD000828193811F921F921F921F921F921F92B9
:102AE000912C812CC12C01E023E240E062850E9400
:102AF000F80F0F900F900F900F900F900F900F9175
:102B0000EF90CF90BF90AF909F908F9008958F924D
:102B10009F92AF92BF92CF92EF920F93FC014A0126
:102B2000A62EB12C828193811F921F923F932F93E7
:102B30009F924F93C12CE12C00E023EA40E0628594
:102B40000E94F80F0F900F900F900F900F900F9022
:102B50000F91EF90CF90BF90AF909F908F9008957E
:102B60008F929F92AF92BF92CF92EF920F93FC0100
:102B7000E62EB22EA42E828193811F921F921F9265
:102B80001F921F921F92912C812CC12C03E023E2F3
:102B900040E062850E94F80F0F900F900F900F9009
:102BA0000F900F900F91EF90CF90BF90AF909F90AC
:102BB0008F9008952F923F924F925F926F927F92E3
:102BC0008F929F92AF92BF92CF92DF92EF92FF923D
:102BD0000F931F93CF93DF93CDB7DEB7E8970FB670
:102BE000F894DEBF0FBECDBF3C01362E242E122F2F
:102BF000DC011296CD90DC9013971A968C9181117E
:102C000018C1D601ED91FC910190F081E02D60E0BA
:102C1000C60109957C01009709F40DC1FC01A08053
:102C2000B180A114B10409F408C14301F4E08F0E8E
:102C3000911CDC0111969C928E9214961C93FE01BD
:102C400031962F018F0128E030E040E060E0D301B1
:102C500012968D919C910E94C310182FF701148237
:102C60008111EDC08D8111ED893069F50981D601A1
:102C7000ED91FC910280F381E02D222D41E0632D46
:102C8000C6010995282FF301828714ED8823D9F016
:102C90008885858340E060E0828193810E94711184
:102CA000182FD701AD92BC92882339F1D601ED914E
:102CB000FC910480F581E02DD3011A966C91C60138
:102CC0000995F3011286812FE8960FB6F894DEBFBE
:102CD0000FBECDBFDF91CF911F910F91FF90EF906D
:102CE000DF90CF90BF90AF909F908F907F906F902C
:102CF0005F904F903F902F900895011179C09401FB
:102D000042E0F3016285828193810E94290C182F91
:102D10008111D9CFF301828193811F921F925F921B
:102D20004F921F9228E02F9328E0822E912CB12CF5
:102D3000A12C39E2C32EE12C06E020EA40E06285B6
:102D40000E94F80F182F0F900F900F900F900F9078
:102D50000F908111B8CF8B81D3011B968C931B9759
:102D6000720100E028E030E040E01A966C911A977A
:102D700012968D919C910E94EA10182F8111A3CF79
:102D80002B813C8140E0F3016285828193810E9426
:102D9000EA10182F811197CF298130E0CE0181965A
:102DA0007C0140E0D3011A966C911A9712968D918E
:102DB0009C910E94EA10182F811185CF2E8140E04E
:102DC000F3016285828193810E94D512182F8111AF
:102DD0007ACF01E0D3011B968C911B978017E0F00E
:102DE00020E0402F68E0C3010E94B0150F5FF2CFD2
:102DF000013208F000E2202F30E0820140E0D301F0
:102E00001A966C911A9712968D919C910E94C310FC
:102E1000182F811158CF73CF1296ED91FC91139713
:102E2000EA58FF4F80818460808381E050968C93C4
:102E30004ACF19ED48CF16ED46CF17ED44CFB182FA
:102E4000A08241CFCF92DF92FF920F931F93CF9337
:102E5000DF9300D000D0CDB7DEB78C01F62E1982FB
:102E60001A821B821C8220E0462F61E10E945D15C0
:102E700020E04F2D60E1C8010E945D1520E04F2D3C
:102E800064E0C8010E94B01583E0C82ED12C9E01D9
:102E90002F5F3F4F44E050E06F2DC8010E9487151F
:102EA000811114C089819A81AB81BC819D7F83305F
:102EB0009140A041B10551F064E670E080E090E0FF
:102EC0000E94040A81E0C81AD10809F720E04F2DBA
:102ED00064E1C8010E945D1520E04F2D60E1C8014A
:102EE0000E945D1564E170E080E090E00E94040AB9
:102EF0000F900F900F900F90DF91CF911F910F9136
:102F0000FF90DF90CF900895FC019B018FE691E048
:102F10009183808373836283148288E085839CE33A
:102F2000968391E09783808784E081871286138659
:102F30001486158616861786108A61157105B1F0FC
:102F4000DB01AA5ABF4F90E080E04D915D91452B87
:102F500049F4DC019B96AA0FBB1FA20FB31FED9390
:102F6000FC93089501968031910579F70895EF92C9
:102F7000FF921F93CF93DF93EC01162F7A01FA0192
:102F800080819181A281B3818130F3E09F07F1E0DC
:102F9000AF07B105A9F170F48115E1E09E07AE0716
:102FA000B10509F44DC081309140A140B10541F116
:102FB00080E040C09D7F83309140A041B105C1F7C2
:102FC00020E0462F64E1CE010E945D1520E0412FF4
:102FD00060E1CE010E945D1564E170E080E090E068
:102FE0000E94040A6A85F701218126952170677085
:102FF000412F8A819B810E94D41110923303D8CF34
:10300000809133038111D4CF20E0412F61E1CE01C3
:103010000E945D1520E0412F60E1CE010E945D1508
:1030200020E0412F64E0CE010E94B01581E0809342
:10303000330381EBDF91CF911F91FF90EF900895C3
:1030400020E0462F61E1CE010E945D1520E0412F76
:1030500060E1CE010E945D15109233036A85660F10
:10306000660F660F68731770612B8A819B810E94BF
:10307000440C9ECFCF92DF92EF92FF920F931F935B
:10308000CF93DF93CDB7DEB72E970FB6F894DEBFA0
:103090000FBECDBF6C0181E090E09E878D87E12C53
:1030A0008E010F5F1F4F9E01235F3F4F41E0F601EE
:1030B0006285828193810E94FA12182F811123C0A8
:1030C00082E0E82E01E089818E2169F119861A8655
:1030D0001B861C869E01275F3F4F44E050E0602F17
:1030E000C6010E948715F82E81111DC0AE01475FF1
:1030F0005F4F602FC6010E94B717813B19F08823EC
:1031000091F0F82E1F2D812F2E960FB6F894DEBF6A
:103110000FBECDBFDF91CF911F910F91FF90EF9028
:10312000DF90CF900895EE0C0F5F083061F6FF241A
:10313000F394F60183858F1530F319861A861B8662
:103140001C869E01275F3F4F44E050E06F2DC60173
:103150000E948715082F811117C089859A8587706D
:1031600091708130914081F48B859C8581609C8732
:103170008B87AE01475F5F4F6F2DC6010E94B71767
:10318000813B29F0811102C0F394D3CF082F102F77
:10319000BACF1F93CF93DF9300D000D000D0CDB72C
:1031A000DEB78D839E83ED81FE81808981110CC005
:1031B00010E0812F26960FB6F894DEBF0FBECDBF6C
:1031C000DF91CF911F9108950E94020A69837A834B
:1031D0008B839C83ED81FE8184859585A685B7854B
:1031E00029813A814B815C81281B390B4A0B5B0B8F
:1031F000DA01C901B7FDDCCFCF010E943A18182FC0
:103200000E94020ADC01CB018C599F4FAF4FBF4F88
:10321000ED81FE8184879587A687B787CACF0F93F4
:103220001F93CF93DF93FC018B01EA018081918191
:10323000892B31F19281992349F128813981232BFE
:10324000F9F0D8012D913C91D9014C918381682FDF
:10325000691B770B80819181860F971FDC014C934E
:1032600082818150828388819981019799838883A3
:10327000D8018D919C91119701968D939C93DACFF3
:1032800080E0DF91CF911F910F9108958381828318
:1032900081E0F7CF809140040895CF93DF9300D071
:1032A0000F92CDB7DEB72091C305243019F523E086
:1032B00029838A839B832093E9008FEF9091E80014
:1032C000815095FD06C095ED9A95F1F700008111AA
:1032D000F5CF8091E80085FF0DC050E040E063E04D
:1032E00070E0CE0101960E949B1D8091E8008E77D0
:1032F0008093E8000F900F900F90DF91CF91089589
:10330000CF93DF9300D00F92CDB7DEB79C018091B1
:10331000C305843031F582E08983205831093B832D
:103320002A8383E08093E9008FEF9091E800815039
:1033300095FD06C095ED9A95F1F700008111F5CF46
:103340008091E80085FF0DC050E040E063E070E050
:10335000CE0101960E949B1D8091E8008E7780939C
:10336000E8000F900F900F90DF91CF91089520917A
:10337000C3052430F1F422E02093E9002FEF3091CF
:10338000E800215035FD06C035ED3A95F1F7000013
:103390002111F5CF2091E80025FF0BC050E040E05F
:1033A00065E070E00E949B1D8091E8008E7780931D
:1033B000E8000895CF93DF93D82FC92F8091C305DC
:1033C000843021F581E08093E90081E8815021F08B
:1033D0009091E80095FF1DC08091E80085FF16C020
:1033E00050E040E068E070E08D2F9C2F0E949B1D14
:1033F0008091E8008E778093E80088E0ED2FFC2F25
:10340000A8E3B4E001900D928A95E1F7DF91CF91A6
:103410000895EFE3F1E03197F1F700C00000D6CF57
:10342000CF93DF9300D000D00F92CDB7DEB72091BD
:1034300036032D8321110CC00E949B0A643C794005
:103440008105910528F081E080933603B1E0BD83CA
:103450008D810F900F900F900F900F90DF91CF9173
:1034600008958091C205811104C00E94F31F0C943D
:10347000502008951092C2050895089542E061EC2D
:1034800081E00E94171D42E061EC82E00E94171D5E
:1034900042E061EC83E00E94171D42E261EC84E0AF
:1034A0000C94171D8091C505893081F148F4823054
:1034B00009F491C0833009F44CC0813041F0089583
:1034C0008A3009F478C08B3009F45EC00895809189
:1034D000C405813AE9F58091E800877F8093E80090
:1034E0008091C8059091C905892B61F468E088E353
:1034F00094E070E00E94EC1D8091E8008B7780934F
:10350000E800089560E090E080E0F3CF8091C4058A
:103510008132F1F48091C8059091C905892BC1F4DD
:103520008091E800877F8093E8008091E80082FF27
:103530000BC08091F100809340048091E8008B776C
:103540008093E8000C944B1D8091C3058111EDCF51
:1035500008958091C405813AD9F78091C80590916A
:10356000C905892BA9F78091E800877F8093E8003F
:103570008091E80080FFFCCF809110018093F100E2
:103580008091E8008E77DCCF8091C405813201F70D
:103590008091C8059091C905892BD1F68091E800EA
:1035A000877F8093E8000E944B1D8091C605809321
:1035B00010010C94FD238091C405813249F680915D
:1035C000E800877F8093E8000E944B1D8091C7052B
:1035D0008093410408958091C405813A09F0B8CFE1
:1035E0008091E800877F8093E8008091E80080FF69
:1035F000FCCF80914104C2CFFF920F931F93CF93D2
:10360000DF93D82F0FB607FE48C08091C3058430E2
:1036100071F08091030190E001962091050130E066
:10362000822393232091040128171906B1F50E94E3
:10363000101A81110FC02091030130E02F5F3F4F1E
:103640008091050190E0282339238091040182179D
:10365000130619F50E948F0A8C01C091E900CF7002
:103660009091EC00892F817090FD80E8C82B84E058
:103670008093E90085E0F82E8091EB0085FD0AC07B
:103680009091EB00892F817090FF04C09091EE0023
:1036900097FD43C0CF70C093E9008091030190E093
:1036A0009C012F5F3F4F4091050150E024233523BB
:1036B000409104014217130609F47CC020910101D6
:1036C00030910201820F931FFC01D083809103018E
:1036D0008F5F909105018923809303016BC0E09176
:1036E0000101F0910201E90FF11D20819F5F3091EE
:1036F00005019323909304012093F1009091E80039
:1037000095FD0BC09091E80090FF07C09091E800F4
:103710009E779093E800F09200019091040120912F
:1037200003013091E800291731F135FDD8CF80E051
:1037300026C01092F1002EC030E02F5F3F4F409125
:10374000050150E0242335239217130609F0A2CF78
:1037500080910001882309F49DCF0E948F0A9C016B
:103760008017910709F488CF8091000181508093E0
:103770000001890181CF35FFDACFD093F10030917C
:10378000F3004091F200532F452B79F03091E8007F
:1037900030FF0BC03091E80035FDCBCF3091E80011
:1037A0003E773093E800F0920001882329F2CF7031
:1037B000C093E90080E0DF91CF911F910F91FF90BE
:1037C00008950895089580914004809337031092DE
:1037D00040040E9460220C94FD230C94E31B0E9481
:1037E000BA2E809137038093400408950C94EF1B08
:1037F000089584B7877F84BF0FB6F894A895809109
:103800006000886180936000109260000FBE80E8C5
:1038100090E00FB6F89480936100909361000FBE22
:1038200086E091E00E9458210E94E11B0E94AB219A
:103830000E94F31F0E94502078940E94AD21809135
:10384000C305843009F03EC00E94E21BC4E08091B1
:10385000C3058530E1F10E94B1212091E40030914F
:10386000E50080913403909135032817390739F129
:103870008091E4009091E5009093350380933403A8
:103880000E94101A8823D9F08091C3058430B9F4BE
:103890009091E9009F702091EC00822F817020FDB3
:1038A00080E8892BC093E9009091EB0090FF04C061
:1038B0009091EE0097FD2AC08F708093E9000E94DE
:1038C0003D21C5CF0E943D210E94F81BB8CF0E9428
:1038D0006D08BDCFE0910101F0910201E90FF11DEA
:1038E00020819F5F309105019323909304012093E1
:1038F000F1009091E80095FD09C09091E80090FFDB
:1039000005C09091E8009E779093E80090910401A3
:1039100020910301291721F02091E80025FDDACF3D
:103920009091F3002091F200392F232B29F29091EE
:10393000E80090FFC1CF9091E80095FD06C09091FE
:10394000E8009E779093E800B7CF1092F100F3CF94
:10395000FC01CB01DA012F2F332723303105D1F0C1
:1039600070F42130310509F447C02230310569F483
:1039700084E790E02DE134E02D933C9308952132CB
:103980003105E9F02232310539F190E080E030E094
:1039900020E0F2CFCF019927E13059F08230910534
:1039A00059F0E9E1F4E0892B81F7849190E09F01DF
:1039B000E3CFE9E0F4E0F9CFEBECF3E0F6CF6430ED
:1039C000710518F7880F991FFC01E357FE4F2081FE
:1039D000318189E090E0D0CF64307105B0F6FB0111
:1039E000EE0FFF1FEB57FE4F208131818F579E4F07
:1039F000FC01808190E0C0CF82E190E021E934E0D9
:103A0000BBCF80E189BD82E189BD09B400FEFDCF55
:103A10008091D8008F7D8093D8008091E0008260F3
:103A20008093E0008091E00081FDFCCF0895982F05
:103A3000973028F08F708093E90081E0089590938B
:103A4000E900242F762F50E0981731F07091EC00A8
:103A50002091ED005091F00021FD02C09F5FE8CF62
:103A60003091EB003E7F3093EB003091ED003D7FD5
:103A70003093ED003091EB0031603093EB007093A8
:103A8000EC002093ED005093F0002091EE0027FD14
:103A9000E5CF80E008958091C40587FF13C0809131
:103AA000E80082FF06C08091E8008B778093E800F1
:103AB00004C08091C3058111F2CF08958091C305A0
:103AC0008823D9F38091E80080FFF8CF8091E80047
:103AD0008E77ECCF2091E4003091E50095E6A901C6
:103AE0002091EC00822F817020FF06C08091E800B9
:103AF00080FF06C080E008952091E80022FD1AC0F2
:103B00008091C305882389F0853089F08091EB008E
:103B100085FD0FC02091E4003091E5004217530766
:103B2000F9F29150E1F684E0089582E0089583E08F
:103B3000089581E00895AF92BF92CF92DF92FF92F5
:103B40000F931F93CF93DF936C01EB018A010E94C7
:103B50006A1DF82E811125C00115110539F0F801F3
:103B600080819181C81BD90BC80ED91EB12CA12C04
:103B70002097B9F08091E80085FD24C08091E8008D
:103B80008E778093E8000E943D2101151105A1F078
:103B9000F80180819181A80EB91EB182A08285E0D2
:103BA000F82E8F2DDF91CF911F910F91FF90DF9015
:103BB000CF90BF90AF9008950E946A1D8823C1F2F4
:103BC000F82EEFCFF60181916F018093F1002197DC
:103BD000FFEFAF1ABF0ACCCFFC01CB012091CA0581
:103BE0003091CB052617370790F0009729F42091E4
:103BF000E8002E772093E80040E0009751F441114F
:103C000008C08091E80082FF31C080E00895C901BA
:103C1000F3CF2091C3052223A9F12530A9F12091EA
:103C2000E80023FD2DC02091E80022FDEACF20917D
:103C3000E80020FFE2CF3091F3002091F2000097DE
:103C400019F02830310558F041E02830310509F0ED
:103C500040E02091E8002E772093E800CECF4191FC
:103C60004093F10001972F5F3F4FE9CF8091C3054B
:103C7000882341F0853041F08091E80083FFC1CF77
:103C800081E0089582E0089583E00895FC01CB016E
:103C90002091CA053091CB052617370790F0009781
:103CA00029F42091E8002E772093E80040E0009767
:103CB00051F4411108C08091E80082FF32C080E0D9
:103CC0000895C901F3CF2091C3052223B1F1253016
:103CD000B1F12091E80023FD2EC02091E80022FDE3
:103CE000EACF2091E80020FFE2CF3091F30020914D
:103CF000F200009719F02830310558F041E02830E3
:103D0000310509F040E02091E8002E772093E8008B
:103D1000CECF44914093F100319601972F5F3F4FF2
:103D2000E8CF8091C305882341F0853041F0809130
:103D3000E80083FFC0CF81E0089582E0089583E02A
:103D400008951F93CF93DF93CDB7DEB7AA970FB631
:103D5000F894DEBF0FBECDBF84EC95E0FC01019668
:103D60002091F100208325E08C3C9207B9F70E9456
:103D7000521A8091E80083FF1EC18091C405909182
:103D8000C5059A3008F017C1E92FF0E0E554FC4C66
:103D90000C949F33803899F0823809F00CC18091DF
:103DA000C8058F70873008F006C18093E9008091C4
:103DB000EB0085FB882780F91092E90006C080910E
:103DC000C0059091C105911182609091E800977FA4
:103DD0009093E8008093F1001092F1008091E80048
:103DE0008E77E5C0882309F4D3C0823009F0E3C0A0
:103DF0008091C6058111D6C08091C8058F702FEFC4
:103E0000280F263008F0D7C08093E9002091EB00FE
:103E100020FFC8C0933031F48091EB008062809322
:103E2000EB00C0C09091EB0090619093EB0021E01B
:103E300030E001C0220F8A95EAF72093EA00109241
:103E4000EA008091EB008860EACF8111B4C0109144
:103E5000C6051F778091E3008078812B8093E30073
:103E60008091E800877F8093E8000E944B1D80913D
:103E7000E80080FFFCCF8091E30080688093E3003E
:103E800082E0111183E08093C30595C08058823091
:103E900008F091C08091C6059091C7058C3D23E044
:103EA0009207A1F583E08A838AE289834FB7F89469
:103EB000DE01139620E03EE051E2E32FF0E0509364
:103EC0005700E49120FF03C0E295EF703F5FEF7071
:103ED0008E2F90E0EA30C0F0C7968D939D932F5FB0
:103EE000243159F74FBF8091E800877F8093E80025
:103EF0006AE270E0CE0101960E94EC1D8091E8001C
:103F00008B778093E80057C0C096E7CF6091C805D3
:103F10007091C905AE014F5F5F4F0E94A81CBC01A4
:103F2000892B09F448C08091E800877F8093E800DE
:103F300089819A810E94461EE1CF8038E1F5809107
:103F4000E800877F8093E8008091BF058093F100AF
:103F500045CF811130C09091C605923060F58091B7
:103F6000E800877F8093E8009093BF050E944B1D77
:103F70008091BF05882311F084E005C08091E300A3
:103F800087FDFACF81E08093C3050E943E1A13C0DB
:103F90008091C605813079F481E0933009F080E0AA
:103FA0008093C1051092E9008091E800877F80939B
:103FB000E8000E944B1D8091E80083FF0AC08091B9
:103FC000E800877F8093E8008091EB008062809317
:103FD000EB00AA960FB6F894DEBF0FBECDBFDF91FF
:103FE000CF911F9108950E9461200E946920E0EE08
:103FF000F0E0808181608083E8EDF0E080818F7760
:10400000808319BCA7EDB0E08C918E7F8C9380816A
:104010008F7E80831092C20508950F931F93CF93D4
:10402000DF930E9461200E946920C8EDD0E0888162
:104030008F77888388818068888388818F7D888353
:1040400019BC1092C3051092BF051092C1051092C1
:10405000C00500EE10E0F80180818B7F80838881AD
:104060008160888342E060E080E00E94171DE1EEFD
:10407000F0E080818E7F8083E2EEF0E080818160DD
:104080008083808188608083F80180818E7F808337
:10409000888180618883DF91CF911F910F9108956E
:1040A000E8EDF0E080818F7E8083E7EDF0E08081B5
:1040B0008160808384E082BF81E08093C2050C949C
:1040C0000D20E8EDF0E080818E7F80831092E20089
:1040D00008951092DA001092E10008951F920F9255
:1040E0000FB60F9211242F933F934F935F936F93CB
:1040F0007F938F939F93AF93BF93EF93FF938091A1
:10410000E10082FF0BC08091E20082FF07C0809136
:10411000E1008B7F8093E1000E943C218091DA00D6
:1041200080FF19C08091D80080FF15C08091DA000F
:104130008E7F8093DA008091D90080FF8FC080E16C
:1041400089BD82E189BD09B400FEFDCF81E0809385
:10415000C3050E94311A8091E10080FF19C080914F
:10416000E20080FF15C08091E2008E7F8093E20024
:104170008091E20080618093E2008091D8008062AB
:104180008093D80019BC85E08093C3050E94ED1B85
:104190008091E10084FF29C08091E20084FF25C066
:1041A00080E189BD82E189BD09B400FEFDCF809127
:1041B000D8008F7D8093D8008091E1008F7E80931E
:1041C000E1008091E2008F7E8093E2008091E20026
:1041D00081608093E2008091BF05882309F444C088
:1041E00084E08093C3050E94F61B8091E10083FF69
:1041F00024C08091E20083FF20C08091E100877F8E
:104200008093E10082E08093C3051092BF05809106
:10421000E1008E7F8093E1008091E2008E7F8093A9
:10422000E2008091E20080618093E20042E060E081
:1042300080E00E94171D0E943D1AFF91EF91BF91EF
:10424000AF919F918F917F916F915F914F913F912E
:104250002F910F900FBE0F901F90189519BC1092C0
:10426000C3050E943A1A77CF8091E30087FD02C010
:1042700081E0B7CF83E0B5CF0895CF938091C30598
:104280008823A1F0C091E900CF709091EC00892FB4
:10429000817090FD80E8C82B1092E9008091E800C1
:1042A00083FD0E94A11ECF70C093E900CF910895B5
:1042B00090934704809346040895E0914604F0915A
:1042C0004704309721F00190F081E02D099480E0BF
:1042D0000895E0914604F0914704309721F0028060
:1042E000F381E02D09940895E0914604F09147048C
:1042F000309721F00480F581E02D099408952091F4
:104300004404309145042817390771F0909345040F
:1043100080934404E0914604F0914704309721F0E3
:104320000680F781E02D0994089520914204309190
:1043300043042817390771F0909343048093420493
:10434000E0914604F0914704309721F00084F18514
:10435000E02D099408950C9461220E94860A0C9421
:104360005D096F927F928F929F92AF92BF92CF9290
:10437000DF92EF92FF920F931F93CF93DF9300D0C2
:1043800000D00F92CDB7DEB70E942C0729E4A22EF1
:1043900024E0B22E10E0812F0E94E4077C01F50199
:1043A000C190D1905F01C816D906E9F18091B4059A
:1043B00081FD0E94100800E066246394712CCE24D5
:1043C000DF244501F2E08F1A9108C601862197216A
:1043D000892B21F109831A8321E0C70186219721C6
:1043E000892B09F420E02B830E948F0A8160782FAB
:1043F0009D838C8349815A816B818D810E946422C7
:1044000049815A816B817C818D810E94672EF401E4
:104410008081918186259725918380830F5F660C2B
:10442000771C003191F61F5F103109F0B4CF8FEF88
:1044300089838A831B820E948F0A8160782F9D83E3
:104440008C8349815A816B818D810E9464220E94F4
:10445000662E0E943A310E945D219091480489178E
:10446000C9F00E945D21809348040F900F900F9037
:104470000F900F90DF91CF911F910F91FF90EF90D0
:10448000DF90CF90BF90AF909F908F907F906F9074
:104490000C94782E0F900F900F900F900F90DF914B
:1044A000CF911F910F91FF90EF90DF90CF90BF9031
:1044B000AF909F908F907F906F9008950C9411080B
:1044C0000895089508950895CF93DF93CDB7DEB78B
:1044D0002B970FB6F894DEBF0FBECDBF4F83588722
:1044E00069877A878B878A859B85892B21F0842F22
:1044F00085238F3FD1F41E8285E0FE013796DE01D1
:10450000119601900D928A95E1F749815A816B814C
:104510007C818D819E812B960FB6F894DEBF0FBEF5
:10452000CDBFDF91CF910C94192A69857A858B854F
:104530000E94672EE0CFCF93DF93882309F4E6C073
:104540009EE7980F933020F5D2E0C9E3823831F02E
:10455000D4E0C7E4833811F4D1E0C3E50E945D21C3
:104560008D2309F0D3C08C2F0E94C52D0E94402EB0
:104570002FEF81EE94E0215080409040E1F700C0A1
:1045800000008C2F0E94E22DDF91CF910C94402EE1
:104590009CEF980F913A18F40E94C52DF5CF90E248
:1045A000980F983050F4877091E001C0990F8A9568
:1045B000EAF7892F0E94052EE7CF9BE5980F9330ED
:1045C00080F4853A41F0863A49F083E890E0DF9143
:1045D000CF910C947F2181E890E0F9CF82E890E0C0
:1045E000F6CF98E5980F973108F090C0883A09F413
:1045F00048C0893A09F448C08A3A09F448C08B3A5D
:1046000009F448C08C3A09F448C08D3A09F448C00E
:104610008E3A09F448C08F3A09F448C0813B09F446
:1046200048C0803B09F448C0823B09F448C0833B42
:1046300009F448C0843B09F448C0853B09F448C0EC
:10464000863B09F448C0873B09F448C0883B09F41D
:1046500048C0893B09F448C08A3B09F448C08B3BF9
:1046600009F448C08C3B09F448C08D3B09F448C0AC
:104670008E3B09F448C090E080E0DF91CF910C942C
:10468000952182EE90E0F9CF89EE90E0F6CF8AEEA8
:1046900090E0F3CF85EB90E0F0CF86EB90E0EDCFAC
:1046A00083EB90E0EACF84EB90E0E7CF87EB90E0FC
:1046B000E4CF8CEC90E0E1CF8DEC90E0DECF83E8AE
:1046C00091E0DBCF8AE891E0D8CF82E991E0D5CFC5
:1046D00084E991E0D2CF81E292E0CFCF83E292E011
:1046E000CCCF84E292E0C9CF85E292E0C6CF86E2E9
:1046F00092E0C3CF87E292E0C0CF8AE292E0BDCFE2
:104700008FE690E0BACF80E790E0B7CFDF91CF910E
:104710000895CF93DF93882309F44CC09EE7980F48
:10472000933018F5D2E0C9E3823831F0D4E0C7E421
:10473000833811F4D1E0C3E50E945D218D23D1F1CE
:104740008C2F0E94C52D0E94402E2FEF81EE94E009
:10475000215080409040E1F700C000008C2F0E9463
:10476000E22DDF91CF910C94402E9CEF980F913A5F
:10477000B0F390E2980F983050F4877091E001C048
:10478000990F8A95EAF7892F0E940B2EEACF9BE5B5
:10479000980F933030F490E080E0DF91CF910C944B
:1047A0007F21885A873130F490E080E0DF91CF910B
:1047B0000C949521DF91CF910895882321F00E94D8
:1047C000052E0C94402E0895882321F00E940B2E74
:1047D0000C94402E08950E94272E0E94F42D0E94D2
:1047E000402E0E9420320E942F3190E080E00E94F3
:1047F0007F2190E080E00C9495210E94162E0C946D
:10480000EB23AF92BF92CF92DF92EF92FF920F9382
:104810001F93CF93DF93CDB7DEB729970FB6F894E8
:10482000DEBF0FBECDBF5C010E947A2E811114C085
:1048300085E0F501DE01119601900D928A95E1F770
:10484000F50183819481009739F040815181242FB3
:1048500025232F3F09F05FC329960FB6F894DEBFDA
:104860000FBECDBFDF91CF911F910F91FF90EF90C1
:10487000DF90CF90BF90AF900895F12FFF70EF2E93
:10488000107F19F0E29440EFE422FF20D1F0EE20F7
:1048900029F08E2D0E94192E0E94402E802F2996DD
:1048A0000FB6F894DEBF0FBECDBFDF91CF911F9141
:1048B0000F91FF90EF90DF90CF90BF90AF900C944E
:1048C0009B22802F0E948923EE2031F28E2D0E94A0
:1048D0001F2E29960FB6F894DEBF0FBECDBFDF9115
:1048E000CF911F910F91FF90EF90DF90CF90BF90ED
:1048F000AF900C94402E212F2F70D22E107F1032AB
:1049000019F0D29430EFD322002379F0013009F46A
:1049100055C0FF2009F463C0EE2059F0F5018581F0
:1049200080FF07C28F70858304C0FF2059F1E1101A
:1049300013C08D2D29960FB6F894DEBF0FBECDBFE4
:10494000DF91CF911F910F91FF90EF90DF90CF906B
:10495000BF90AF900C94DD2331E08D2DE312EACFB0
:1049600029960FB6F894DEBF0FBECDBFDF91CF9171
:104970001F910F91FF90EF90DF90CF90BF90AF907D
:104980000C942A2EE11015C00E942D2E8D2D2996F3
:104990000FB6F894DEBF0FBECDBFDF91CF911F9150
:1049A0000F91FF90EF90DF90CF90BF90AF900C945D
:1049B000E42341E0E41609F44FCFE6CFFF2051F0A5
:1049C00055E05E1508F448CF0E94022E8D2109F4AF
:1049D000B0CFDCCF84E08E1508F43ECFD7CFEE20E9
:1049E000A9F2802F29960FB6F894DEBF0FBECDBF77
:1049F000DF91CF911F910F91FF90EF90DF90CF90BB
:104A0000BF90AF900C948923812F869586958370F3
:104A1000D9F0813009F020CFC8019370F11002C0A5
:104A200090E080E029960FB6F894DEBF0FBECDBFB0
:104A3000DF91CF911F910F91FF90EF90DF90CF907A
:104A4000BF90AF900C949521C8019370F11002C0F3
:104A500090E080E029960FB6F894DEBF0FBECDBF80
:104A6000DF91CF911F910F91FF90EF90DF90CF904A
:104A7000BF90AF900C947F21802FFF20A1F00E9467
:104A8000483029960FB6F894DEBF0FBECDBFDF9138
:104A9000CF911F910F91FF90EF90DF90CF90BF903B
:104AA000AF900C942F310E94B030EBCF812F8370E8
:104AB00009F08CC0F110D0CE202F229526952770BA
:104AC000220F220F802F8F7090E0B0E0A0E06C01E9
:104AD0007D01022E04C0CC0CDD1CEE1CFF1C0A94D0
:104AE000D2F760E070E0CB0104FF0FC06FE070E030
:104AF00080E090E004C0660F771F881F991F2A95F9
:104B0000D2F76095709580959095169516951370CF
:104B10001230C9F1133009F454C09B01AC012C29A7
:104B20003D294E295F292E833F83488759871130BD
:104B3000A1F0CA01B90129960FB6F894DEBF0FBEE5
:104B4000CDBFDF91CF911F910F91FF90EF90DF903C
:104B5000CF90BF90AF900C94872B6E817F8188851A
:104B6000998529960FB6F894DEBF0FBECDBFDF91B1
:104B7000CF911F910F91FF90EF90DF90CF90BF905A
:104B8000AF900C94572B9B01AC012C293D294E2949
:104B90005F292E833F8348875987CA01B901299627
:104BA0000FB6F894DEBF0FBECDBFDF91CF911F913E
:104BB0000F91FF90EF90DF90CF90BF90AF900C944B
:104BC000B72B0E94872BC701B601CBCF8695FF205C
:104BD00011F0812F8170882309F43ECE202F229579
:104BE00026952770220F220F802F8F7090E0B0E063
:104BF000A0E06C017D01022E04C0CC0CDD1CEE1C7B
:104C0000FF1C0A94D2F760E070E0CB0104FF0FC0F4
:104C10006FE070E080E090E004C0660F771F881FAF
:104C2000991F2A95D2F76095709580959095169565
:104C3000169513701230C9F1133009F454C09B015A
:104C4000AC012C293D294E295F292E833F834887BB
:104C500059871130A1F0CA01B90129960FB6F8940D
:104C6000DEBF0FBECDBFDF91CF911F910F91FF909F
:104C7000EF90DF90CF90BF90AF900C94D02C6E81CE
:104C80007F818885998529960FB6F894DEBF0FBE7F
:104C9000CDBFDF91CF911F910F91FF90EF90DF90EB
:104CA000CF90BF90AF900C94A82C9B01AC012C2905
:104CB0003D294E295F292E833F8348875987CA01A2
:104CC000B90129960FB6F894DEBF0FBECDBFDF91B4
:104CD000CF911F910F91FF90EF90DF90CF90BF90F9
:104CE000AF900C94F82C0E94D02CC701B601CBCF0A
:104CF000013F09F473C068F5003E98F4003C98F059
:104D0000812F8F71102F1071FF2009F43EC00E9477
:104D1000112C802F8295807F11110CCE802F8F70E7
:104D200009CE003FE1F1FF2009F4A0C0EE2009F414
:104D30009AC0802F0E949B22093309F08DC0FFEF9B
:104D400021EE34E0F15020403040E1F700C0000097
:104D500083CD023F09F458C0033F29F7FF2009F42F
:104D600069C0812F8F7129960FB6F894DEBF0FBEF0
:104D7000CDBFDF91CF911F910F91FF90EF90DF900A
:104D8000CF90BF90AF900C94EC2B0E94422C802FC0
:104D90008295807F1111FBCD802F8F70F8CDFF2081
:104DA000C1F034E03E1508F457CD812F8F7129965C
:104DB0000FB6F894DEBF0FBECDBFDF91CF911F912C
:104DC0000F91FF90EF90DF90CF90BF90AF900C9439
:104DD000772C45E04E1508F43FCDE7CF812F8F713A
:104DE000FF20B1F029960FB6F894DEBF0FBECDBFFD
:104DF000DF91CF911F910F91FF90EF90DF90CF90B7
:104E0000BF90AF900C94112C812F8F71FF2051F324
:104E100029960FB6F894DEBF0FBECDBFDF91CF91BC
:104E20001F910F91FF90EF90DF90CF90BF90AF90C8
:104E30000C94422C29960FB6F894DEBF0FBECDBF5E
:104E4000DF91CF911F910F91FF90EF90DF90CF9066
:104E5000BF90AF900C94E72B033509F470CF073463
:104E600009F0FACC6CCF812F8F71BCCFE110B9CD96
:104E7000812F8F71CDCF412F4F70602FC5010E94C0
:104E80001B0329960FB6F894DEBF0FBECDBFDF918E
:104E9000CF911F910F91FF90EF90DF90CF90BF9037
:104EA000AF900C94B32A0111D7CCFF2009F4D4CCD5
:104EB0000E94FD235FEF80E792E0515080409040D8
:104EC000E1F700C0000029960FB6F894DEBF0FBED0
:104ED000CDBFDF91CF911F910F91FF90EF90DF90A9
:104EE000CF90BF90AF900C94E52E412F4F70602F64
:104EF000C50129960FB6F894DEBF0FBECDBFDF9176
:104F0000CF911F910F91FF90EF90DF90CF90BF90C6
:104F1000AF900C942703F280E580E2942FE0E22228
:104F200049835A83FB82782F9D838C836F2D8D81DB
:104F30000E94212D8C010E94202D0E94562BE12FD2
:104F4000E295EF70F0E0EB53FC4C0C949F33CF9361
:104F5000DF9300D000D00F92CDB7DEB76B837C8398
:104F60008D838C819D81892B21F0842F85238F3F18
:104F7000A1F480E005C0303E58F481E0303CC8F731
:104F80000F900F900F900F900F90DF91CF91089599
:104F9000315F81E03330A0F7ECCF6B817C818D8174
:104FA0000E94212D382F292F22952F70903C40F4FC
:104FB0002A3008F7225F2F7081E0223008F3D9CF22
:104FC0002C3011F02F30A9F693FB882780F9D8CF29
:104FD000CF93DF9300D000D00F92CDB7DEB70F9004
:104FE0000F900F900F900F90DF91CF910895CF9376
:104FF000DF9300D000D000D0CDB7DEB726960FB635
:10500000F894DEBF0FBECDBFDF91CF9108951F93FF
:10501000CF93DF93E091690416E080916A048E13C8
:1050200004C0DF91CF911F910895CE2FD0E01E9F35
:10503000F0011124E559FB4F408151816281738158
:10504000848195810E94F727FE013196E770E5CFB4
:1050500040919B0450919C0460919D0470919E042A
:1050600080919F049091A0040C94F7271F93CF93F5
:10507000DF938091A004807FA9F480919D04882310
:1050800089F080916904C0916A0460919B047091D9
:105090009C04A0919E04B0919F04D62FD72316E0C4
:1050A000C81304C0DF91CF911F91089590E010972D
:1050B00011F0DF3F19F401968770F2CF189F90012D
:1050C000199F300D1124F901E559FB4F4181471318
:1050D000F2CF40814613EFCF42814111ECCF4381A3
:1050E00054814A1B5B0B483C510528F78091A00472
:1050F0008F7080618093A004F901E059FB4F80819B
:105100008F70806180838BE994E00E940124DF919D
:10511000CF911F910C940728AF92BF92CF92DF924C
:10512000EF92FF920F931F93CF93DF93CDB7DEB72C
:105130002B970FB6F894DEBF0FBECDBF8C0185E074
:10514000F801DE01179601900D928A95E1F7F801BA
:1051500040815181F280C380D4808BE9A82E84E005
:10516000B82E60919E0470919F046115710509F439
:105170004BC190919B0420919C04822F89238F3FE7
:1051800009F442C1E0909D04F601E61BF70BEE2006
:1051900009F4E4C08091A004382F307FE83CF10589
:1051A00008F0B6C031117BC0EF2C251323C0941337
:1051B00021C0F1101FC08F7080618093A0040E94F5
:1051C0002828C5010E9401248091A004F80185834C
:1051D0008E2D2B960FB6F894DEBF0FBECDBFDF919C
:1051E000CF911F910F91FF90EF90DF90CF90BF90E4
:1051F000AF900895C114D10429F0842F85238F3FE7
:1052000009F014C180E0F82FF170BF2EE09169041D
:1052100020916A0436E080FD1CC0FF20C9F2809115
:10522000A00481608093A004E12CD2CF8E2F90E067
:105230003E9FF0011124E559FB4F6181651306C0C3
:105240006081641303C06281F612E7CFFC013196DE
:10525000E770E213EBCF7C2DDB86CA866F2D8B8542
:105260000E94212D292F22952F70903260F0225F0D
:105270002F70223078F49F7051F0F8019581907F63
:1052800031F4B12C0AC09F7011F08823D1F3805EF5
:105290008830B8F3C8010E940124EB2C99CF251364
:1052A00006C0941304C0F801FF2009F473C04F83B3
:1052B0005887F9867C2DDB86CA866F2D8B850E94E8
:1052C000A727882309F4AEC0FF2009F4ABC0809162
:1052D000A004803270F020919B0430919C043A83AA
:1052E00029831B82DD82CC828E83CE0101960E94AF
:1052F000012486E0F801ABE9B4E001900D928A95B3
:10530000E1F70E9436280E942828EE24E39460CF1B
:10531000311113C07C2DDB86CA866F2D8B850E94D0
:10532000E8278BE994E00E94012486E0F5011192C0
:105330008A95E9F70E94282877CF2513B8CF9413D0
:10534000B6CFF110B4CFF8018583C8010E940124C3
:1053500086E0F50111928A95E9F73ACFE83CF1052C
:1053600008F045C0EF2CFF2009F45CC025132AC0CB
:10537000941328C08091A00480FD1BC0982F907FBB
:10538000C1F0F8018583903F31F0982F907F905FB6
:105390008F70892B8583C8010E94012486E0F80163
:1053A000ABE9B4E001900D928A95E1F70E942828BC
:1053B0000FCF86E0F801ABE9B4E001900D928A9539
:1053C000E1F706CF4F835887F9867C2DDB86CA86A6
:1053D0006F2D8B850E94A72781118BCF8091A00410
:1053E00081608093A004C8010E940124F1CE7C2D2D
:1053F000DB86CA866F2D8B850E94E82786E0F50143
:1054000011928A95E9F7D2CFFF2061F04F83588738
:10541000F9867C2DDB86CA866F2D8B850E94A72797
:10542000811167CFC8010E9401246FCF81E08F25D1
:10543000EACE1F93CF93DF93CDB7DEB72C970FB68D
:10544000F894DEBF0FBECDBF4F83588769877A8738
:105450008B879C87CE0107960E948C28882369F051
:105460008A859B85892B39F04F815885842F852328
:105470008F3F09F071C016E05FC086E0FE013796ED
:10548000DE01119601900D928A95E1F78A859B8540
:10549000892B89F388859F8189238F3F61F3209130
:1054A0006A0430E0C9010196877099274091690428
:1054B0004817190671F40E94FD2310926A04109295
:1054C000690486E0EBE9F4E0DF011D928A95E9F7D3
:1054D000D2CF96E0929FD001939FB00D1124A55991
:1054E000BB4FFE01319601900D929A95E1F78093A2
:1054F0006A040E940728BFCF819FC00111248559EB
:105500009B4F0E948C288823E9F0E09169041E9F3C
:10551000F0011124E559FB4F408151816281738173
:10552000848195810E94F7278091690490E001961B
:1055300087709927809369048091690490916A0427
:105540008913DACF2C960FB6F894DEBF0FBECDBF0D
:10555000DF91CF911F91089569857A858B859C8510
:105560000E94F72788CFDF92EF92FF920F931F934D
:10557000CF93DF939C01892BB9F0F12CE12CDD2432
:10558000D394E9012196F9018491853709F46EC01D
:1055900098F4843709F45BC0843008F073C081301C
:1055A00011F1823009F43DC0DF91CF911F910F912D
:1055B000FF90EF90DF900895883709F460C058F4A9
:1055C000863709F458C0873779F78F2D0E94132E3C
:1055D0000E94402E20C09CE7980F903728F78F77C5
:1055E0000E94892318C089010E5F1F4FFE0184911C
:1055F00090E2980F983060F48770FD2D01C0FF0F86
:105600008A95EAF78F2F0E94192E0E94402E02C021
:105610000E949B22E8018E2D815008F036C09E0129
:10562000B0CF89010E5F1F4FFE01849190E2980F69
:10563000983050F48770FD2D01C0FF0F8A95EAF76E
:105640008F2F0E941F2EE1CF0E948923E3CF2E5F70
:105650003F4FFE01C491C15010F4E901DCCF8FE946
:105660009FE00197F1F700C00000F5CF2E5F3F4F9C
:10567000FE01E490F2CF0E94022EF82ECCCF0E94C1
:10568000162EA6CF0E949B22C6CFEFE9FFE03197EE
:10569000F1F700C00000C0CF6093A1057093A20590
:1056A0008093A3059093A4050C94772E0895CF932F
:1056B000DF9300D000D0CDB7DEB769837A838B83C8
:1056C0009C838091A5059091A605A091A705B09116
:1056D000A80529813A814B815C81282B392B4A2BE3
:1056E0005B2B29833A834B835C832093A5053093FE
:1056F000A6054093A7055093A805CA01B9010F90CC
:105700000F900F900F90DF91CF910C94762ECF9346
:10571000DF9300D000D0CDB7DEB769837A838B8367
:105720009C838091A5059091A605A091A705B091B5
:10573000A80529813A814B815C81282339234A239A
:105740005B2329833A834B835C832093A5053093A5
:10575000A6054093A7055093A805CA01B9010F906B
:105760000F900F900F90DF91CF910C94762ECF93E6
:10577000DF9300D000D0CDB7DEB769837A838B8307
:105780009C838091A5059091A605A091A705B09155
:10579000A80529813A814B815C81282739274A272E
:1057A0005B2729833A834B835C832093A505309341
:1057B000A6054093A7055093A805CA01B9010F900B
:1057C0000F900F900F90DF91CF910C94762E60E0A8
:1057D00070E0CB010C944C2B0F931F93CF93DF936E
:1057E00000D000D0CDB7DEB741E050E060E070E01F
:1057F0008A019B0104C0000F111F221F331F8A95CD
:10580000D2F709831A832B833C83C901B8010F9017
:105810000F900F900F90DF91CF911F910F910C94EB
:105820004C2B0F931F93CF93DF9300D000D0CDB7B5
:10583000DEB741E050E060E070E004C0440F551F67
:10584000661F771F8A95D2F78091A1059091A205D6
:10585000A091A305B091A4058A019B01082B192BE7
:105860002A2B3B2B09831A832B833C83C901B80164
:105870000F900F900F900F90DF91CF911F910F918C
:105880000C944C2B0F931F93CF93DF9300D000D039
:10589000CDB7DEB741E050E060E070E004C0440FF7
:1058A000551F661F771F8A95D2F7409550956095D2
:1058B00070958091A1059091A205A091A305B0914A
:1058C000A4058A019B01082319232A233B2309836A
:1058D0001A832B833C83C901B8010F900F900F905E
:1058E0000F90DF91CF911F910F910C944C2B0F9340
:1058F0001F93CF93DF9300D000D0CDB7DEB741E048
:1059000050E060E070E004C0440F551F661F771F31
:105910008A95D2F78091A1059091A205A091A30547
:10592000B091A4058A019B01082719272A273B2744
:1059300009831A832B833C83C901B8010F900F9010
:105940000F900F90DF91CF911F910F910C944C2BE2
:10595000CF93DF9300D000D0CDB7DEB769837A83D1
:105960008B839C838091A1059091A205A091A305B2
:10597000B091A40529813A814B815C81282B392B78
:105980004A2B5B2B29833A834B835C83CA01B90181
:105990000F900F900F900F90DF91CF910C944C2BA4
:1059A000CF93DF9300D000D0CDB7DEB769837A8381
:1059B0008B839C838091A1059091A205A091A30562
:1059C000B091A40529813A814B815C812823392338
:1059D0004A235B2329833A834B835C83CA01B90141
:1059E0000F900F900F900F90DF91CF910C944C2B54
:1059F000CF93DF9300D000D0CDB7DEB769837A8331
:105A00008B839C838091A1059091A205A091A30511
:105A1000B091A40529813A814B815C8128273927DF
:105A20004A275B2729833A834B835C83CA01B901E8
:105A30000F900F900F900F90DF91CF910C944C2B03
:105A400008954F925F926F927F929F92AF92BF9212
:105A5000CF92DF92EF92FF920F931F93CF93DF933A
:105A600000D000D00F92CDB7DEB749835A836B8345
:105A70007C838D838C819D81892B31F0F42EE52EE2
:105A8000842F85238F3F59F590E080E00F900F9091
:105A90000F900F900F90DF91CF911F910F91FF907A
:105AA000EF90DF90CF90BF90AF909F907F906F90DE
:105AB0005F904F9008956F2D7E2D8A2D0E94202F8C
:105AC0000197C1F13CC0F80184E0EE0FFF1F8A95F9
:105AD000E1F7EF55FB4FEC0DFD1D90803BC0052F0E
